:020000040800F2
:10000000B05600205902000861020008630200088F
:10001000650200086702000869020008000000008D
:100020000000000000000000000000009D0100082A
:100030006D02000800000000F1010008B52400086E
:1000400073020008730200087302000873020008BC
:1000500073020008730200087302000873020008AC
:10006000730200087302000873020008730200089C
:10007000730200087302000873020008730200088C
:10008000730200087302000873020008730200087C
:10009000730200087302000873020008730200086C
:1000A000730200087302000873020008730200085C
:1000B000730200087302000873020008730200084C
:1000C00073020008730200087302000899240008F4
:1000D00073020008C12B0008CD2B00087302000832
:1000E000730200087302000873020008730200081C
:1000F000730200087302000873020008730200080C
:1001000073020008291E0008730200087302000829
:100110007302000873020008C1250008730200087A
:1001200073020008730200087302000873020008DB
:1001300073020008730200087302000873020008CB
:1001400073020008730200087302000873020008BB
:1001500073020008730200087302000873020008AB
:10016000730200087302000873020008730200089B
:100170007302000873020008730200080000000008
:100180007302000873020008DFF80CD000F09AF840
:1001900000480047232C0008B05600202B4B19685C
:1001A0000868B0E8F04F80F30988BFF36F8F4FF015
:1001B000000080F3118870470000000006480068C6
:1001C000006880F3088862B661B6BFF34F8FBFF353
:1001D0006F8F00DF00BF00BF08ED00E0DFF80C000C
:1001E000016841F470010160704700BF88ED00E0D4
:1001F000EFF30980BFF36F8F144B1A681EF0100FD6
:1002000008BF20ED108A20E9F04F106008B44FF0CD
:10021000500080F31188BFF34F8FBFF36F8F02F050
:10022000BBFF4FF0000080F3118808BC1968086814
:10023000B0E8F04F1EF0100F08BFB0EC108A80F34A
:100240000988BFF36F8F704700BF00BF24000020F4
:10025000EFF30580704700000648804706480047D6
:10026000FEE7FEE7FEE7FEE7FEE7FEE7FEE7FEE766
:10027000FEE7FEE76D2500088901000840EA01035A
:100280009B0703D009E008C9121F08C0042AFAD24C
:1002900003E011F8013B00F8013B521EF9D2704710
:1002A000D2B201E000F8012B491EFBD270470022B8
:1002B000F6E710B513460A4604461946FFF7F0FF65
:1002C000204610BD064C074D06E0E06840F00103F3
:1002D00094E8070098471034AC42F6D3FFF758FF74
:1002E000D8360008F8360008FEE790F835100229E5
:1002F00003D08021416501207047052180F8351029
:100300000068016821F0010101600020704731B5EB
:1003100000F0E6F8044600F0E3F80099001B88427C
:10032000F9D338BD2DE9F84FDFF87CB100224FF04A
:1003300001084FF0030A4FF00F090BF1040E00BF44
:100340000B6808FA02F42340A3426ED14D68022DD7
:1003500001D0122D0ED1D50800EB850CDCF8205011
:100360005607F70E09FA07F6B5430E69BE402E434D
:10037000CCF82060066855000F790AFA05FC07F0F2
:10038000030726EA0C06AF40374307604E68012E8C
:1003900005D0022E03D0112E01D0122E0ED1866868
:1003A000CF6826EA0C06AF40374387604668A6430D
:1003B0000C79C4F30014944034434460C6688C68DC
:1003C00026EA0C06AC403443C4604C68E40065D5B2
:1003D000364C256845F480452560246822F00305E5
:1003E00004F480440094324C2E19D6F8084895073E
:1003F0002F0F09FA07F5AC432E4DA84201D1002575
:1004000024E02D4DA84201D101251FE02B4DA8422B
:1004100001D102251AE02A4DA84201D1032515E099
:10042000284DA84202D1042510E037E0264DA8420D
:1004300001D105250AE0254DA84201D1062505E098
:10044000234DA84201D1072500E00825BD402543E2
:10045000C6F80858DBF800405D464E689C43F6033A
:1004600000D51C432C60DEF8004075464E689C4366
:10047000B60300D51C432C600B4D08352C684E6824
:100480009C43F60200D51C432C60074D0C352C68AC
:100490004E689C43B60200D51C432C60521C102AA7
:1004A000FFF44EAFBDE8F88F003C014044380240F5
:1004B00000300140000002400004024000080240F9
:1004C000000C0240001002400014024000180240DC
:1004D000001C02400AB1816170470904FBE700007B
:1004E00001480068704700001000002002480168C1
:1004F000491C016070470000100000200B4810B537
:10050000016841F400710160016841F4806101609B
:10051000016841F480710160032000F09BF8002025
:1005200000F006F800F03EF8002010BD003C02404C
:1005300010B5014688B00022362000F06BF8362056
:1005400000F05CF813480024016841F010010160DC
:10055000006805A900F010000690684600F0F2F966
:1005600000F016FA0C494000B0FBF1F10C480B4AC0
:10057000491E026040F2E732C0E90324C0E90114D9
:1005800000F0B2FF10B1012008B010BD044800F027
:10059000C7FFF9E74038024040420F00001000401A
:1005A000C001002010B5032000F054F800221146CD
:1005B0006FF00B0000F02EF8002211466FF00A00D9
:1005C00000F028F8002211466FF0090000F022F830
:1005D00000221146501F00F01DF800221146101F86
:1005E00000F018F800220F21901E00F013F80022EE
:1005F0000F21BDE81040501E00F00CB800F01F02A3
:10060000012191404009800000F1E020C0F8001174
:1006100070470000F0B40E4B1B680C46C3F3022376
:10062000C3F10705042D00D90425191D072901D29E
:10063000002300E0DB1E012606FA05F1491E2140D9
:1006400099409E40761E16403143F0BC01F09EBB9F
:100650000CED00E0064900F0070208684FF6FF03C2
:10066000184040EA0220034A104308607047000027
:100670000CED00E00000FA052DE9F843054600788E
:100680004FF00109C0074FF0000633D0DFF8248196
:10069000C8F86860FFF724FF0746474C05E000BF35
:1006A000FFF71EFFC01B022863D820680001F7D4A3
:1006B00047F6C07191FAA1F16868B1FA81F18840FA
:1006C0004FF0E04292FAA2F2A968B2FA82F29140A7
:1006D0000843394984310860C8F86890FFF700FF83
:1006E000074604E0FFF7FCFEC01B022841D8206843
:1006F0000001F7D52878800752D52F48403001688F
:1007000041F08051016000682C4C00F08050009056
:10071000206840F480702060FFF7E2FE074604E0A6
:10072000FFF7DEFEC01B022823D82068C005F7D5DE
:10073000214C7034206810F4407020D0A98901F455
:10074000407181421BD020681D4920F44070C1F8DF
:1007500000900E6020602068C00710D0FFF7C0FE38
:10076000064641F2883707E0FFF7BAFE801BB84221
:1007700002D90320BDE8F88320688007F4D5E96832
:100780000D48C1F301220830032A0BD0016821F47F
:10079000F81101602068A989C1F30B0108432060AA
:1007A0000020E7E70268074B22F4F81219400A43D9
:1007B0000260EFE70000474200380240007000404E
:1007C000400E4742FFFCFF0F2DE9F047DFF8649130
:1007D00005460F46D9F8000000F00F01F8B2804638
:1007E000B94208D2014689F80010D9F8000000F09B
:1007F0000F00B84274D128784F4C800705D5206887
:10080000A96820F0F000084320602878C00759D07C
:1008100049496868083901281AD002281BD00328E2
:1008200019D00968890700295ADA216821F00301E3
:1008300001432160FFF754FE6968064641F28830A3
:10084000012911D002291DD00329824627D035E085
:1008500009688903E7E709688901E4E7FFF740FED3
:10086000811B514501D926E082462068C0F38100F2
:100870000128F3D126E000BFFFF732FE811B51456E
:1008800001D918E082462068C0F381000228F3D124
:1008900018E000BFFFF724FE811B51450BD82068EC
:1008A000C0F381000328F5D10CE000BFFFF718FE6C
:1008B000811B514502D90320BDE8F087206810F064
:1008C0000C0FF3D1D9F80010484601F00F01B942DE
:1008D00008D980F80080006800F00F00B84201D00D
:1008E0000120E9E72878400705D52068E96820F469
:1008F000E050084320602878000706D52068296961
:1009000020F4604040EAC100206000F071F82168E6
:10091000F02292FAA2F201F0F001B2FA82F2D14092
:10092000064A515CC840064908600020FFF700FEF7
:100930000020C1E7003C024008380240A43600080D
:10094000140000200F2202600C4A136803F0030316
:100950004360136803F0F0038360136803F4E0530B
:10096000C36012684FF4E05303EAD2020261044804
:10097000006800F00F00086070470000083802406F
:10098000003C02400148006870470000140000204D
:1009900008480949006809684FF4E05292FAA2F247
:1009A00001F4E051B2FA82F2D140044A515CC840ED
:1009B000704700001400002008380240A4360008E8
:1009C00008480949006809684FF4604292FAA2F2A7
:1009D00001F46041B2FA82F2D140044A515CC8404D
:1009E000704700001400002008380240A4360008B8
:1009F00030B51948006810F00C01184812D0184C96
:100A000004290ED008290DD11349091F0A6802F0E4
:100A10003F030A68550247F6C07204D5B4FBF3F0F1
:100A200003E0204630BDB0FBF3F00B6809681340CB
:100A300092FAA2F2B2FA82F2D34058434FF4403213
:100A400092FAA2F201F44031B2FA82F2D140491C8A
:100A50004900B0FBF1F030BD083802400024F4003A
:100A600040787D012DE9F84F0446DFF8CC8200780C
:100A7000A8F1040BC007ABF1040537D0D8F800107B
:100A80004046C1F38101012908D00068C0F381000C
:100A900002280AD1DBF80000400206D5286880034E
:100AA00024D56068002878D020E0A3492079891FE8
:100AB0000870606868B1FFF713FD064605E000BFE7
:100AC000FFF70EFD801B642868D828688003F7D5DF
:100AD0000CE0FFF705FD064605E000BFFFF700FD4F
:100AE000801B6428F0D828688003F7D42078934EC0
:100AF00080074FF0010A4FF0000742D5D8F80010E8
:100B0000404611F00C0F08D00068C0F381000228A5
:100B10000AD1DBF80000400206D42868800714D50B
:100B2000E068012839D110E0E068D8B1C6F800A02B
:100B3000FFF7D6FC814605E0FFF7D2FCA0EB0900E9
:100B40000228C1D828688007F6D52868F82292FACA
:100B5000A2F22169B2FA82F220F0F8009140084333
:100B600028600EE03760FFF7BBFC814606E000BF5F
:100B7000FFF7B6FCA0EB090002280FD82868800711
:100B8000F6D42078000728D56D486169A1B1C0F876
:100B900000A0FFF7A5FC814608E0CAE079E000BFAD
:100BA000FFF79EFCA0EB0900022872D862486C3067
:100BB00000688007F4D510E00760FFF791FC8146DC
:100BC00006E000BFFFF78CFCA0EB0900022860D80C
:100BD00059486C3000688007F4D42078400749D524
:100BE00055483830016841F080510160006800F0DC
:100BF000805000905348016841F480710160FFF714
:100C00006FFC814606E000BFFFF76AFCA0EB09001D
:100C100002283ED84B480068C005F5D5DFF818918A
:100C2000207A09F1680989F80000A06888B1FFF707
:100C300057FC009008E000BFFFF752FC0099411AF2
:100C400041F2883081426CD8D9F800008007F3D592
:100C500010E0FFF745FC009008E000BFFFF740FC04
:100C60000099411A41F2883081425AD8D9F80000DF
:100C70008007F3D4A069E0B3D8F80010C1F3810174
:100C8000022956D00228376604D0FFF729FC044613
:100C90004AE046E0FFF724FC074604E0FFF720FCAB
:100CA000C01B02283DD828688001F7D4D4E9070189
:100CB000084347F6C07292FAA2F2616AB2FA82F26F
:100CC0009140A26A4FF0FF3303EB52024FF44033DE
:100CD00093FAA3F3B3FA83F39A40114308434FF016
:100CE000706292FAA2F2E16AB2FA82F2914008438B
:100CF00000E01CE0CBF80000C6F860A0FFF7F0FBB6
:100D0000044604E0FFF7ECFB001B022809D8286822
:100D10008001F7D50BE000BFFFF7E2FB001B0228C4
:100D200002D90320BDE8F88F28688001F4D40020A0
:100D3000F8E70120F6E700000838024000004742CB
:100D4000800E47420070004070B5040002D0607F02
:100D500010B106E0012070BD00202077204600F091
:100D600041F8022060772168CA2048622168532038
:100D70004862204601F01AF8FF210028206803D0BD
:100D8000416204206077E5E78268154B1A40826073
:100D90002268906863681843D4E904352B431843EC
:100DA00090602268E068106120680269238942EA45
:100DB000034202612068C26822F08002C26020689B
:100DC000026C22F4802202642068026CA3691A4338
:100DD00002642068416201206077002070BD00003D
:100DE000BFFF8FFF00680349884202D102490120FA
:100DF00008607047002800403C0E47422DE9F0474C
:100E000090F8202081F85620828CA1F85420826A24
:100E10000027120E93090B70C2F383034B7002F08C
:100E200003028A70826A120CCA70028D120A0A7159
:100E300090F828204A71C26A4FF6FF7A120E0AEA29
:100E40000212CA80C26ACB88C2F3074243EA121375
:100E5000CB8002F00F020A72828DC2F30723DA09F7
:100E60004A72C3F380128A72C3F34012CA72C3F388
:100E700000120A7300224A73046A4FF00109002C21
:100E80007DD0012CFCD0022C7AD02927C3F380140A
:100E90004C769B065B0E01F81A3F10F8303F0C7839
:100EA00044EAD31401F8014B03F07F0301F8013B3E
:100EB00050F8043F1B0EDC090C70C3F341144C7056
:100EC000C3F382048C709B071B0FCB7008C8CC78CF
:100ED000C3F3074344EA9314CC70C3F340140C717A
:100EE0004A7103F001028A7130F8042CC2F3072220
:100EF000D309CB71C2F380130B72C2F340134B7250
:100F0000C2F300138B72C2F38103CB7202F00302AF
:100F10000A7310F8042C52084A734B4681F80E905D
:100F200050F8082B120E0A7450F8082C120C0AEA1A
:100F300002224A8230F8082CC2F307244A8A22434C
:100F40004A8210F8082C120641F8142F50F8042C8D
:100F50000C68120E44EA02420A6050F8042C0C6835
:100F6000C2F3074244EA02220A6030F8042C0C68FB
:100F7000C2F30722144310C110F8042C01E034E03E
:100F800074E001F8012B0268120E01F8032B0268CD
:100F9000120C12060A6002880C68C2F3072244EAA7
:100FA00002420A6002780C6844EA02220A6042683F
:100FB0000C6844EA126410C142680C78C2F307421C
:100FC00044EA121401F8024B1207120D0A808288BB
:100FD0000C88C2F30722144321F8024B0079400821
:100FE00008704B703846BDE8F0879B071B0D0B61FE
:100FF00090F82C300C6944EA83030B61036B0C6995
:101000001B0E44EA93140C61C3F3C2040C7503F085
:1010100007034B75036BC3F307435C098C75C3F37C
:101020008204CC759B075B0F0B76038E0C7EC3F39B
:10103000072344EAD3140C760D690E7EB61C09FA18
:1010400006F46D1CA5FB046C02FB04CC05FB02C47A
:101050000D7A09FA05F8A6FB085C04FB08C406FB38
:101060000244C1F85080C1E912540FE790F82C30C7
:101070009B069B0A0B61036B0C691B0E44EA03235E
:101080000B61036B0C69C3F307431C430C61038EB4
:101090000C69C3F30723641C42F10005ED0445EA23
:1010A0005435E404C1E912454FF400740C65EDE6D3
:1010B00010B501680446486BC0050AD54FF480702E
:1010C00088630120A0640020E064204600F0E7F877
:1010D00025E0486B800702D5022088631BE0486B3F
:1010E000000703D508208863042014E0486B8006BD
:1010F00003D52020886306200DE0486BC00603D589
:1011000010208863052006E0486B800507D54FF462
:10111000007088630720E064204600F0C1F8206872
:10112000C16B4CF23A329143C16310BD70B586B0C9
:1011300000240E4605468DF80C40047700F046F872
:1011400076200094CDE901402346224621462868B6
:1011500000F070FE284601F071F88DF80C009DF843
:101160000C0038B9284600F0FAFF8DF80C009DF805
:101170000C0018B19DF80C0006B070BD3146284631
:10118000FFF73CFE8DF80C009DF80C00A0B9B6F8F6
:101190005400694600040090072001904020CDE9EA
:1011A000020400010490286800F05DFE0721284633
:1011B00000F06AFE8DF80C0005F1100007C88DE8FC
:1011C000070095E80F0000F035FED3E7F0B50068A2
:1011D000174987B0884229D116480024016841F494
:1011E000006101600068022500F4006005904FF482
:1011F000F850CDE9000502AA03260C2782E8D000AA
:1012000069460D48FFF78EF80420CDE9000502AAD3
:10121000694682E8D0000948FFF784F800220521DA
:101220003120FFF7F7F93120FFF7E8F907B0F0BDFB
:10123000002C01404438024000080240000C0240EB
:10124000FEB50446006A00250E46032805D030B1DD
:10125000012804D0022802D01FE02720FEBDB6F5E9
:10126000805F05D0B6F5006F04D03EB1262514E0AE
:10127000272512E0204601F0D4F802E0204601F0D4
:1012800097F8050009D1211DD4E905700EC9009613
:10129000CDE90170206800F0CDFD2846FEBD704705
:1012A0007047704738B504460068426881684B064D
:1012B00005D4CB0703D0530601D5216C04E08B077E
:1012C00007D5130605D5616C01B02046BDE8304056
:1012D000084711F4B07F48D0930646D54B060AD58F
:1012E00094F85130032B3DD0636D43F004036365E4
:1012F000C368836800938B0609D5636D43F00103CF
:10130000636583680093036823F040030360C805A6
:1013100006D5606D40F00800606520688068009028
:10132000606D002821D02068416821F0E001416013
:10133000012084F85100900718D02068416821F0FE
:10134000030141600B4DE06C18B10565E06CFEF7E0
:10135000CCFFA06C002808D00565A06CBDE8384023
:10136000FEF7C3BFC1688068009038BD2046FFF714
:1013700098FF38BDA524000870B5040005D00025ED
:10138000A56294F8510010B106E0012070BD84F808
:101390005050204600F030F8022084F851002068B8
:1013A000016821F040010160D4E901010843D4E95A
:1013B00003121143084361690843218B01F4007152
:1013C0000843E1690843216A0843A16A0843216888
:1013D0000860A069042101EA1040616A084321689D
:1013E00048602068C16921F40061C1616565012020
:1013F00084F85100002070BD00B50068124987B024
:1014000088421ED111480021026842F480520260D5
:10141000006800F480500590F02000900220CDE993
:101420000101032003900520049069460848FEF757
:1014300079FF002205212320FFF7ECF82320FFF796
:10144000DDF807B000BD0000003001404438024024
:10145000000002404FF0E0210428086903D020F08A
:1014600004000861704740F00400FAE710B5401E20
:10147000B0F1807F01D3012010BD4FF0E024606106
:101480000F21601700F082FC0020A061072020617E
:10149000002010BD7047704730B590F83820012A01
:1014A00020D0012280F83820022380F839300368E8
:1014B0005C6824F070045C6003685C680D682C4311
:1014C0005C6003689C6824F080049C6003689C68EE
:1014D00049680C439C6080F83920002180F838105E
:1014E000084630BD022030BD10B5040003D094F88A
:1014F000390010B107E0012010BD002084F8380049
:10150000204600F00CF8022084F83900211D2068E4
:1015100001F05CF8012084F83900002010BD70470C
:101520000168CA6842F00102CA600068016841F0BF
:101530000101016000207047704770B504460068E3
:1015400001694FF00005C943890715D4C168C94333
:10155000890711D4E91E0161012020762068806985
:101560008007204602D0FFF7E7FF04E000F0B0F864
:10157000204600F045F9257620680169C9434907EE
:1015800017D4C168C943490713D46FF0040101613E
:10159000022020762068806910F4407F204602D027
:1015A000FFF7CAFF04E000F093F8204600F028F9A6
:1015B000257620680169C943090716D4C168C94363
:1015C000090712D46FF00801016104202076206819
:1015D000C0698007204602D0FFF7AEFF04E000F0AC
:1015E00077F8204600F00CF9257620680169C94398
:1015F000C90617D4C168C943C90613D46FF01001D6
:101600000161082020762068C06910F4407F2046E0
:1016100002D0FFF791FF04E000F05AF8204600F0F6
:10162000EFF8257620680169C943C90708D1C16868
:10163000C943C90704D1891E0161204600F0E2F8C0
:1016400020680169C943090609D4C168C94309066C
:1016500005D46FF0800101612046FFF71BFF206871
:101660000169C943490609D4C168C943490605D47B
:101670006FF040010161204600F0CEF8206801695A
:10168000C94389060BD4C168C943890607D46FF0E2
:10169000200101612046BDE87040FFF7FCBE70BD2F
:1016A00000B50068084985B088420BD180140090CD
:1016B00002200021CDE90101CDE90310694603486C
:1016C000FEF730FE05B000BD00080040000C0240EF
:1016D000704770B5044690F838000D4601280DD0CB
:1016E000012684F83860022084F8390042B1042AC7
:1016F00018D0082A2AD00C2A4DD139E0022070BD1A
:10170000206800F0C3FF2068816941F00801816111
:101710002068816921F004018161206881692A695A
:10172000114311E0206800F0DDFF2068816941F479
:10173000006181612068816921F480618161206894
:1017400081692A6941EA0221816124E0206800F070
:10175000FBFF2068C16941F00801C1612068C169CF
:1017600021F00401C1612068C1692A69114311E0B7
:10177000206801F019F82068C16941F40061C16175
:101780002068C16921F48061C1612068C1692A694A
:1017900041EA0221C16184F83960002084F83800F0
:1017A00070BD10B5040003D094F8390010B107E003
:1017B000012010BD002084F83800204600F00CF80D
:1017C000022084F83900211D206800F0FFFE01206E
:1017D00084F83900002010BD08B500680649884229
:1017E00008D10648016841F004010160006800F07A
:1017F0000400009008BD000000080040403802408E
:101800007047000000680349884201D1FEF76EBEB0
:1018100070470000001000407047704770B50268C4
:1018200004461068D168536910F00F0F51D003F0CF
:10183000010501F4907635435DD0C20705D0CA0595
:1018400003D5E26B42F00102E263420705D5DA07F5
:1018500003D0E26B42F00202E263820705D5DA07A9
:1018600003D0E26B42F00402E263020705D5DA0717
:1018700003D0E26B42F00802E263E26B002A34D04C
:10188000800604D5880602D5204600F0CBFF2068EC
:101890004069E16BC0F3801001F00801014320466C
:1018A00024D000F0B1FF2068416949061AD541698A
:1018B00021F040014161606BA0B11B490165606B83
:1018C000FEF713FD002810D0606B016DBDE870407D
:1018D000084783060FD58B060DD52046BDE870401E
:1018E00000F0A0BF2046FFF798FF70BDFFF795FFFF
:1018F0000020E06370BD030606D50B0604D5204624
:10190000BDE8704001F02AB94006F3D54806F1D58C
:10191000D168204621F04001D160202184F839109F
:1019200000F0A5F870BD0000F927000870B50400AC
:1019300004D094F83900002510B106E0012070BDF4
:1019400084F83850204600F023F8242084F8390029
:101950002068C16821F40051C160204600F0A8FF52
:101960002068016921F4904101612068416921F0FA
:101970002A0141612068C16841F40051C160E563FA
:10198000202084F8390084F83A00002070BD00005F
:1019900030B500681E4D022101220323072487B0C1
:1019A000A84216D11B48056845F01005056000687F
:1019B00000F01000059058028DE81F006946164897
:1019C000FEF7B0FC002205212520FEF723FE25208E
:1019D00019E0124DA84218D10E48001F056845F4C1
:1019E00000350560006800F40030059060208DE847
:1019F0001F0069460A48FEF795FC002205212620B3
:101A0000FEF708FE2620FEF7F9FD07B030BD000006
:101A100000100140443802400000024000440040F1
:101A2000000C024090F83A30202B1DD1D1B1CAB140
:101A300090F83830012B17D081628285C285002151
:101A4000C163222280F83A2080F8381001684A6980
:101A500042F001024A610068C16841F49071C160BE
:101A60000020704701207047022070477047704780
:101A7000FF2209490948FFF7D5FF074C084D607858
:101A800028B12978884202D1012001F0AFF8012065
:101A900001F0E4F8F3E700009C0200205C02002063
:101AA0000C00002010B590B0142211496846FEF7D2
:101AB000E5FB0021684601F0E7F80E4C0C491422C2
:101AC0002060143105A8FEF7D9FB002105A801F01C
:101AD000DBF807496060142228310AA8FEF7CEFB24
:101AE00000210AA801F0D0F8A06010B010BD0000DD
:101AF00068360008000000202DE9F0473C4886B019
:101B00000024016841F004010160016801F0040152
:101B10000591016841F080010160016801F08001D8
:101B20000591016841F001010160016801F00101C6
:101B30000591016841F010010160016801F0100198
:101B40000591016841F002010160016801F00201A4
:101B50000591016841F0080101600068DFF8948098
:101B600000F008004FF68075059000222946404697
:101B7000FEF7B0FCDFF880904FF448660022314653
:101B80004846FEF7A7FCDFF874A04FF40067002278
:101B900039465046FEF79EFC00950125CDE90154DB
:101BA000694640460394FEF7BDFBA802CDE9000458
:101BB000694613480294FEF7B5FB0096CDE901543F
:101BC000694648460394FEF7ADFB8020CDE900044A
:101BD00069460C480294FEF7A5FB0097CDE9015435
:101BE000694650460394FEF79DFB06B0BDE8F087BA
:101BF0003038024000100240000C02400000024059
:101C000000040240000802400B4810B50949016079
:101C100000217F22C0E90112FF22C0E903214161B6
:101C20008161FFF791F8002803D0BDE81040FEF76E
:101C30005BBB10BD00280040FC0100200D4810B522
:101C40000B490160002141608160C1600161416117
:101C5000816100F16001FFF769FA08B1FEF744FB0A
:101C6000BDE810404FF400610248FFF7E9BA0000F8
:101C7000002C0140080100200E4810B50C490160FD
:101C80004FF48271416000218160C1600161416156
:101C90008161C1610162416281620A21C162FFF713
:101CA0006BFB002803D0BDE81040FEF71DBB10BD44
:101CB00000300140B000002010B515488AB013492B
:101CC0000024C0E900148460C4600461FFF769FD6A
:101CD00008B1FEF709FB079407A90D480894FFF720
:101CE000DBFB08B1FEF700FB6020CDE900040294A5
:101CF0000022694606480494FFF7EBFC08B1FEF7A2
:101D0000F3FA0348FFF7CCFC0AB010BD000800400E
:101D1000740000200C4810B50A4901604FF4E1310D
:101D20004160002181600C22C160C0E90412816120
:101D3000C161FFF7FBFD002803D0BDE81040FEF7AE
:101D4000D3BA10BD001001401C0200200C4810B591
:101D50000A4901604FF4E1314160002181600C22A9
:101D6000C160C0E904128161C161FFF7DFFD002895
:101D700003D0BDE81040FEF7B7BA10BD00440040E4
:101D80005C020020012000F069FFFBE70907090E53
:101D9000002806DA00F00F0000F1E02080F8141DA2
:101DA000704700F1E02080F80014704770B50446D9
:101DB0000068C168490614D44FF0FF31C160FEF7D6
:101DC0008FFB05464FF47A7607E000BFFEF788FBED
:101DD000401BB04201D9032070BD2068C068400696
:101DE000F4D5002070BD0A6842624A688262D1E977
:101DF00002231A43D1E904310B43C16A1A4321F08B
:101E0000F7011143C162002070470069C0B27047FA
:101E1000006800F00300704708B5024908440090CC
:101E2000006808BD142C01400148FFF741B90000CB
:101E30000801002070B50DF1100C11439CE87000F2
:101E40002343194329434268314347F6FF639A43CA
:101E50000A434260002070BD0321016000207047EA
:101E6000D0F8800070470A688260D1E901231A43E4
:101E7000D1E903310B43C1681A436FF30B011143DE
:101E8000C16000207047000070B5054600680E462E
:101E90000024416B11F0450FFBD0416B490703D57E
:101EA00003210422826304E0416BC90703D00121AE
:101EB0008163084670BDFFF7A8FFB0422BD12968A7
:101EC00040F2FF5088630020FFF7A6FF2849084230
:101ED0004BD0002801DA1C2070BD410001D509203B
:101EE00070BD810001D50A2070BDC10001D50B2055
:101EF00070BD010101D50C2070BD410101D50D203F
:101F000070BDC10101D50E2070BD010201D50F20A9
:101F100070BD410201D5102070BD810201D5112094
:101F200070BDC10201D5122070BD010301D513207F
:101F300070BD410301D5142070BD810301D515206A
:101F400070BDC10301D5162070BD010401D5172055
:101F500070BD410401D5182070BD810401D5192040
:101F600070BD000701D51A2070BD204670BD00006D
:101F700008E0FFFD0146002009684A6B12F0450F9A
:101F8000FBD04A6B520702D50320042207E04A6BBC
:101F9000D20702D001208863704740F2FF528A6363
:101FA00070472DE9F0410446006815460E460027AB
:101FB000416B11F0450FFBD0416B490703D503215D
:101FC0000422826304E0416BC90704D001218163CC
:101FD0000846BDE8F081FFF718FFB04212D1216832
:101FE00040F2FF5088630020FFF716FF10F4604FA7
:101FF00003D0810404D51320EBE7000C288007E010
:10200000410401D51020E4E7000401D50F20E0E7EA
:102010003846DEE70146292009684FF480324B6BD1
:1020200013F0450F07D14B6BA2F1010213F0450FDE
:1020300001D1002AF7D14B6BC3F3800302B113B176
:102040000320042204E04A6B520602D500204022FD
:102050008A6370472DE9F04F91B000250F46069531
:1020600008261021CDE90061402107950446CDE9FD
:10207000021508010490A84669462068FFF7F3FEA0
:1020800010212046FFF700FF002844D1A08C6946AC
:1020900000040090372001902068FFF7E4FE37210C
:1020A0002046FFF7F1FE002835D1401ECDE9080695
:1020B00030204FF00209CDE90A090120CDE90C805A
:1020C000B246464608A92068FFF78DFE3320CDE9C9
:1020D000006069462068FFF7C6FE33212046FFF7FF
:1020E000D3FE060017D10DF1180B40F22A682068C4
:1020F000416B11EA080F08D1416B8902F7D5FFF750
:10210000AFFE4BF825006D1CF1E7416B090705D5C3
:10211000C0F838A0042011B0BDE8F08F416B8907EA
:1021200003D5C0F838904846F5E7416B890603D5DA
:10213000202181630620EEE7416B890504D54FF429
:10214000007181630720E6E740F2FF518163069842
:1021500000BA7860079800BA38603046DBE770B59F
:1021600086B004460120ADF8140000252068FFF772
:102170004FFE58B3206A04285DD000200221C026FB
:102180008DE8430003904802049069462068FFF7F9
:102190006AFE2046FFF7EEFE050018D1FFF73CFE71
:1021A000A0630420FFF738FEE0630820FFF734FE49
:1021B00020640C20FFF730FE6064206A48B10128DB
:1021C00007D0062805D0022803D011E0252006B04C
:1021D00070BD032001904020029069462068FFF7FF
:1021E00042FE05AA03212046FFF7DBFE0500EED1E3
:1021F000206A04281FD0BDF814006062000400901B
:102200000920CDE9010669462068FFF72CFE20462B
:10221000FFF7B0FE0500DAD1FFF7FEFDA062042053
:10222000FFF7FAFDE0620820FFF7F6FD20630C20BF
:10223000FFF7F2FD60632846C9E700002DE9F04F83
:1022400087B0002504468DF80050574EA846A94691
:1022500046F8A05F0068FFF7FFFD0120FEF757F882
:1022600001273760BE02CDE904560195029503951A
:1022700001A92068FFF7F7FD23680021B0015A6B20
:10228000C2F3C01204E05A6B401EC2F3C0120CD05D
:10229000002AF8D048B140F2FF5098638DF8001042
:1022A0009DF8000000287AD101E00321F6E74FF401
:1022B000D570019008204FF0400ACDE9020A01A92B
:1022C0002068FFF7D0FD2046FFF7A4FE8DF8000040
:1022D0009DF8000010B94FF0804927623727CDE9FB
:1022E000015701A92068FFF7BEFD37212046FFF7FF
:1022F000CBFD8DF800009DF80000D8B34FE00397A8
:10230000CDE9015BCDE9045601A92068FFF7ABFDDB
:1023100037212046FFF7B8FD8DF800009DF800003A
:1023200048BB2249CDE9045649EA01000190292021
:10233000CDE9020701A92068FFF795FD206800217B
:10234000426B12F0450FFBD0426B520702D50321BE
:10235000042201E040F2FF5282638DF800109DF8E4
:10236000000040B90020FFF757FDC10F08F1010838
:1023700005D008E000E012E0BB465746BFE74FF645
:10238000FF718845BBD34FF6FF72904503D31B20E6
:102390008DF8000003E0400001D5022020629DF886
:1023A000000007B0BDE8F08F0080254200001080DB
:1023B00030B589B000250446019528460295FFF7FF
:1023C0002BFD800102D50E2009B030BD01A92046A9
:1023D000FFF740FE0028F7D10298C0031FD5A08C5C
:1023E00003A900040390372004904020CDE905059F
:1023F000000107902068FFF736FD37212046FFF7E0
:1024000043FD0028E0D10620CDE9035003A9206850
:10241000FFF729FD06212046FFF736FDD4E72520EA
:10242000D2E730B589B000250446019528460295CB
:10243000FFF7F2FC800102D50E2009B030BD01A9E2
:102440002046FFF707FE0028F7D10298400320D569
:10245000A08C03A900040390372004904020CDE90C
:102460000505000107902068FFF7FDFC3721204695
:10247000FFF70AFD0028E0D1022003900620049017
:1024800003A92068FFF7EFFC06212046FFF7FCFCBC
:10249000D3E72520D1E700000148FEF703BF000085
:1024A000B000002010B5806B0021C187C186FEF707
:1024B000F8FE10BD00F0DEBB30B52A4897B000250D
:1024C000016841F080510160006800F08050159073
:1024D0002548016841F4804101600068022400F44D
:1024E0008040159005200090012001900290800509
:1024F000CDE90640192008904FF4A870CDE90904F1
:1025000007200B906846FEF7ADFA00B1FEE70CA974
:102510000F2081E831004FF4A0500F904FF480500D
:10252000109005210CA8FEF74FF900B1FEE74FF41B
:1025300080701490119411A8FEF79EF800B1FEE788
:10254000FEF720FA4FF47A71B0FBF1F0FEF78EFF40
:102550000420FEF77FFF00220F21501EFEF75AF8DD
:1025600017B030BD4038024000700040104801688C
:1025700041F4700101600F48016841F00101016000
:102580000C4A00210832116002680B4B1A400260AD
:10259000031D0A4A1A60026822F48022026005487C
:1025A0000C3001600249580680390860704700000D
:1025B00088ED00E000380240FFFFF6FE10300024F6
:1025C0000148FEF7BABF0000C0010020F0B5026864
:1025D000234B244D244E254F254C4FF0804C9842E0
:1025E00009D0604507D0A84205D0B04203D0B84218
:1025F00001D0A04204D122F0700E4A6842EA0E02D5
:1026000098421BD0604519D0A84217D0B04215D0CF
:10261000B84213D0A04211D0164DA8420ED0164D8C
:10262000A8420BD0154DA84208D0154DA84205D0A0
:10263000144DA84202D0144DA84203D122F4407593
:10264000CA682A4302608A68C2620A688262984243
:1026500001D0A04201D10969016301214161F0BDAE
:10266000000001400004004000080040000C004051
:102670000004014000400140004401400048014086
:1026800000180040001C00400020004030B5026AE5
:1026900022F001020262026A436884690D6824F034
:1026A0007304254322F002048A6822430B4CA042A3
:1026B00002D00B4CA0420BD122F00804CA6823F4CC
:1026C000407322434C6922F004021C438B6923436C
:1026D0004360856149684163026230BD000001408A
:1026E0000004014030B5026A22F010020262026A60
:1026F000436884690D6824F4E64444EA05248D683F
:1027000022F0200242EA05120D4DA84202D00D4DE2
:10271000A8420ED1CD6822F0800242EA05124D692E
:1027200023F4406343EA85038D6922F0400243EAC3
:1027300085034360846149688163026230BD0000A3
:10274000000001400004014030B5026A22F48072AA
:102750000262036A4268C46923F4007324F07305BB
:102760000C682C438D6843EA05230D4DA84202D026
:102770000C4DA8420ED1CD6823F4006343EA052333
:102780004D6922F4405242EA05128D6923F48063B8
:1027900042EA05124260C4614968C163036230BD08
:1027A000000001400004014030B5026A22F480526A
:1027B0000262046A4268C3690D6823F4E64343EA8F
:1027C00005238D6824F4005444EA0534084DA842DA
:1027D00002D0084DA84204D14D6922F4804242EA59
:1027E00085124260C36149680164046230BD000023
:1027F000000001400004014010B5806B0021C1853C
:10280000C184FFF70AF810BD0168CA6822F490720B
:10281000CA6001684A6922F001024A61202180F8F9
:102820003A10704710B590F83A10222901D00220D2
:1028300010BD8168B1F5805F11D001690029016880
:102840001FD0496801F07F03816A4A1C82620B70C5
:10285000C18D491E0904090CC18518D026E0026902
:10286000816A002A0268526805D0D2B20A80816A61
:10287000491C8162ECE7C2F308020A80816A891C64
:10288000F7E74A68816A4B1C83620A70E0E70168D7
:10289000CA6822F49072CA6001684A6922F0010293
:1028A0004A61202180F83A10FFF7E0F8002010BDBF
:1028B0002DE9F04104460068016921F44052E168C5
:1028C000114301612168C86849F20C629043236991
:1028D000A268E5691A4363692B431A430243CA603D
:1028E0002168486920F44072A06910434861E16999
:1028F0006425B1F5004F9748974A21684FF0320898
:102900003FD0914201D081427CD1FEF759F800EBD3
:10291000C00101EB001061688900B0FBF1F6FEF721
:102920004FF800EBC00101EB001061688900B0FBBB
:10293000F1F0B0FBF5F06FF01801484306EB8001B1
:1029400008EB0110B0FBF5F000F0F006FEF738F8E8
:1029500000EBC00101EB001061688900B0FBF1F0F1
:10296000B0FBF5F006EB0016FEF72AF800EBC0010D
:1029700001EB001061688900B0FBF1F7FEF720F869
:10298000D2E0914201D081423DD1FEF719F800EB2F
:10299000C00101EB001061684900B0FBF1F0B0FB31
:1029A000F5F00601FEF70CF800EBC00101EB00109A
:1029B00061684900B0FBF1F7FEF702F800EBC001D7
:1029C00001EB001061684900B0FBF1F0B0FBF5F0DD
:1029D0006FF01801484307EB800108EBC100B0FB22
:1029E000F5F000F0F80006EB4006FDF7E9FF00EB1C
:1029F000C00101EB001061684900B0FBF1F7FDF781
:102A0000DFFF3CE055E0FDF7C3FF00EBC00101EB49
:102A1000001061684900B0FBF1F0B0FBF5F0060171
:102A2000FDF7B6FF00EBC00101EB00106168490043
:102A3000B0FBF1F7FDF7ACFF00EBC00101EB0010BC
:102A400061684900B0FBF1F0B0FBF5F06FF01801E0
:102A5000484307EB800108EBC100B0FBF5F000F044
:102A6000F80006EB4006FDF793FF00EBC00101EB19
:102A7000001061684900B0FBF1F7FDF789FF00EB3A
:102A8000C00101EB001061684900B0FBF1F0B0FB40
:102A9000F5F06FF01801484307EB800108EBC10027
:102AA000B0FBF5F000F00700216830448860BDE815
:102AB000F081FDF76DFF00EBC00101EB00106168D4
:102AC0008900B0FBF1F6FDF763FF00EBC00101EBFD
:102AD000001061688900B0FBF1F0B0FBF5F06FF019
:102AE0001801484306EB800108EB0110B0FBF5F03C
:102AF00000F0F006FDF74CFF00EBC00101EB001009
:102B000061688900B0FBF1F0B0FBF5F006EB001650
:102B1000FDF73EFF00EBC00101EB0010616889008A
:102B2000B0FBF1F7FDF734FF00EBC00101EB001043
:102B300061688900B0FBF1F0B0FBF5F06FF01801AF
:102B4000484307EB800108EB0110B0FBF5F000F003
:102B50000F00A9E7001401400010014090F839105F
:102B6000212901D0022070478168B1F5805F016A98
:102B70000BD04A1C0262026809785160C18C491E60
:102B80000904090CC1840ED017E009880268C1F35A
:102B90000801516001690029016A02D0491C0162E3
:102BA000ECE7891CFBE70168CA6822F08002CA6072
:102BB0000068C16841F04001C1600020704700001A
:102BC0000148FEF72BBE00001C02002010B5FF22BA
:102BD00004490548FEF726FFBDE810400248FEF70D
:102BE0001DBE00009C0200205C02002002464FF443
:102BF00080610148FDF76EBC00100240012000F02A
:102C00002DF8FBE702E008C8121F08C1002AFAD11C
:102C100070477047002001E001C1121F002AFBD15C
:102C20007047FDF76BFCFFF747FCFEF765FFFFF70A
:102C300005F8FFF721F8FFF73FF8FFF76BF8FFF70C
:102C400085F8FEF7E1FFFEF72DFF00F00EF8FEE736
:102C500001460020842900D0C81C704710B500B977
:102C6000012000F029FA002010BD10B500F058FA3C
:102C7000002010BD10B500F021FC012803D0BDE8F4
:102C8000104000F027BB10BD30B5044685B00D469E
:102C9000B0F90800FFF7DCFF002104AA0090CDE99D
:102CA00001210391208A2B4682B2D4E9001000F062
:102CB00027FB012802D0002005B030BD0498FBE7B7
:102CC00070B50B4C054620684560E0682168854278
:102CD00005D2606BBDE87040091D00F057B9206B4C
:102CE000091D00F053F9A06A854200D2A56270BDAB
:102CF0002400002070B5124E124C1AE000F044FA85
:102D00003068D0B100F04EFC00F064F9F068C5689E
:102D1000281D00F01BF9A068401EA0606068401EDE
:102D2000606000F077F9286B00F088F9284600F021
:102D300085F960680028E1D170BD00F033FCF8E748
:102D400064040020240000200F4844F6206142075C
:102D500005D0C01D0C4A20F00700821A891A0B4AC0
:102D600000230144C2E900030839103A21F00701A9
:102D700011604B600B600B1AC0E9001393604FF0B9
:102D800000405360D06070478C0400206C0000202D
:102D9000074C4FF08056074DFFF7ACFF2068012825
:102DA000FAD92E60BFF34F8FBFF36F8FF4E70000A7
:102DB0009C03002004ED00E030B5114900E011460D
:102DC0000A688242FBD34B685C18844203D1406896
:102DD00018444860084643681C18944209D1084CBE
:102DE000103C2468A24209D052681A4442600A6822
:102DF00012680260814200D0086030BD0460F9E7CB
:102E00006C0000200648016B096829B1016BC96894
:102E1000C9684968816270474FF0FF31FAE70000E6
:102E20002400002008484068401C4FF0500080F308
:102E3000118804D0BFF34F8FBFF36F8FFEE7BFF34E
:102E40004F8FBFF36F8FFEE7180000202DE9F04190
:102E50000546002700F098F9314E306808B9FFF7B1
:102E600073FFF06805424BD1C5B3083568070ED033
:102E700005F00700C0F108000544680707D050209E
:102E800080F31188BFF34F8FBFF36F8FFEE72DB331
:102E90007068854234D82248103001460C6801E041
:102EA00020460C466168A94202D221680029F7D168
:102EB00031688C4224D00768216801606068083757
:102EC000411B10290FD96019420708D0502080F308
:102ED0001188BFF34F8FBFF36F8FFEE710E04160A3
:102EE0006560FFF769FF61687068401A7060B268DA
:102EF000904200D2B060F06801430020C4E90001B4
:102F000000F050FB780707D0502080F31188BFF302
:102F10004F8FBFF36F8FFEE73846BDE8F0810000AA
:102F20005C00002010B5031F4FF080741C601B1F55
:102F30001960191F044B0B6014390A60091F6FF0E8
:102F4000020244380A6010BD252E0008D0E9013283
:102F500001699A60D0E901235A604A68824201D12E
:102F600082684A60002202610868401E086070475B
:102F700000F108014FF0FF32C0E90112C1600161A8
:102F800000210160704700210161704730B50B6876
:102F90005A1C02D000F1080202E0026904E0224655
:102FA000546825689D42FAD953684B6099608A60DD
:102FB000516008610168491C016030BD42684A6087
:102FC00093688B6093685960916008610168491C3F
:102FD00001607047502080F31188BFF34F8FBFF31B
:102FE0006F8F0A494868401C486001280CD1084886
:102FF000006810F0FF0F07D0502080F31188BFF356
:103000004F8FBFF36F8FFEE770470000180000205E
:1030100004ED00E00849486828B1401E486001D12D
:1030200080F311887047502080F31188BFF34F8FD1
:10303000BFF36F8FFEE700001800002070B5002876
:1030400027D0144DA0F108046168E868014207D157
:10305000502080F31188BFF34F8FBFF36F8FFEE7CF
:1030600022683AB1502080F31188BFF34F8FBFF32D
:103070006F8FFEE78143616000F086F860686968E1
:10308000084468602046FFF797FEBDE8704000F0F6
:1030900089BA70BD5C00002006484FF47A71006860
:1030A000B0FBF1F14FF0E020491E416107210161C1
:1030B000704700001400002070B5020022D0164CAA
:1030C000E06A38B1502080F31188BFF34F8FBFF30F
:1030D0006F8FFEE700F058F8E06885182068001D43
:1030E000FFF734FF38B9206890F82C100120884091
:1030F0002169814321612846FFF7E2FD00F052FA81
:10310000002807D105494FF080500860BFF34F8F6A
:10311000BFF36F8F70BD00002400002004ED00E0BD
:103120001FB500240094019402942346802212A12A
:103130001348039400F0E4F8012809D0002819D1BD
:10314000502080F31188BFF34F8FBFF36F8FFEE7DE
:10315000502080F31188BFF34F8FBFF36F8F094862
:103160004FF0FF31816201214161C460BDE81F4021
:1031700000F040B81FBD000049444C45000000006D
:10318000912D0008240000200248C16A491CC16238
:1031900070470000240000201448C16A11B10121C9
:1031A000C16170470021C1610169B1FA81F1C1F1CA
:1031B0001F0101EB81020E4951F822306BB101EB86
:1031C000820101F108034A6852684A609A4201D1BB
:1031D00052684A60D16801607047502080F31188BE
:1031E000BFF34F8FBFF36F8FFEE700002400002076
:1031F0009C0300201CB532480168324A914207D135
:10320000502080F31188BFF34F8FBFF36F8FFEE71D
:1032100000682C49491E884207D1502080F311884C
:10322000BFF34F8FBFF36F8FFEE7274908780190F8
:10323000FF20087008788DF800009DF800009DF8C8
:10324000002000F0F000904207D0502080F3118859
:10325000BFF34F8FBFF36F8FFEE79DF800001B4A4F
:1032600000F0500010700720906005E09DF80030DD
:103270005B008DF80030401E9DF800301B06F5D431
:10328000000200F4E0609060019808700C48203063
:10329000016841F470010160016841F07041016012
:1032A000FFF7FAFE00205060FCF798FF084801681D
:1032B00041F040410160FCF781FF00201CBD00008F
:1032C00000ED00E071C20F4100E400E018000020B2
:1032D00034EF00E010B5502080F31188BFF34F8F1A
:1032E000BFF36F8F00F0F8F818B104494FF0805029
:1032F0000860002080F3118810BD000004ED00E09C
:103300002DE9FF5F5FEA000BDDE90F900E9E154689
:103310008A4609D0072E0FD3502080F31188BFF3BF
:103320004F8FBFF36F8FFEE7502080F31188BFF3FC
:103330004F8FBFF36F8FFEE7A900884610B908468C
:10334000FFF784FD07001ED05C20FFF77FFD04001F
:10335000384616D0A52241462063FCF7A1FF6FF046
:103360000301206B01EB8501084420F00707780773
:103370000CD0502080F31188BFF34F8FBFF36F8FB5
:10338000FEE7FFF75BFE4FF0FF348CE05146354619
:10339000002022180B5C82F834300A5C12B1401C09
:1033A0001028F6D3002084F84300072D00D306250B
:1033B000E562C4E913508046201DFFF7E4FD04F1E7
:1033C0001800FFF7E0FD2461C5F107016462A16107
:1033D000C4F8548084F8588059463846039AFFF759
:1033E000A1FD2060B9F1000F01D0C9F80040FFF73E
:1033F000F1FD2F4DA868401CA8602868DFF8B48054
:1034000010B1686948B32DE02C60A868012829D163
:103410005FF0000707EB870108EB8100FFF7A8FDCD
:103420007F1C072FF6D323488C30FFF7A1FD2148DE
:10343000A030FFF79DFD1F48B430FFF799FD1D48F0
:10344000C830FFF795FD1B48DC30FFF791FD1948A8
:103450008C3028631430686304E02868C06AB04286
:1034600000D82C60686A401C68626064E16A0120D0
:103470002A6988401043286101EB810108EB810033
:10348000211DFFF79BFD0124FFF7C4FD686950B1C2
:103490002868C06AB04206D2074920070860BFF317
:1034A0004F8FBFF36F8F04B02046BDE8F09F000040
:1034B000240000209C03002004ED00E00548416941
:1034C00019B1C06A18B1002070470120704702206E
:1034D00070470000240000202DE9F0412F4C002609
:1034E000E06A40B1A069401CA061E06900B101261A
:1034F0003046BDE8F081E068401CE060E7689FB9B5
:10350000206B006838B1502080F31188BFF34F8FD3
:10351000BFF36F8FFEE7206B616B21636063206AEE
:10352000401C2062FFF76EFCA06ADFF874808742BF
:1035300009D3206B006880B1206BC068C5686868DB
:1035400087420DD2A0622068C06A00EB800158F863
:1035500021000128C9D90126C7E74FF0FF30F1E764
:10356000281DFFF7F3FCA86A18B105F11800FFF752
:10357000EDFCE86A0121226981401143216100EBE1
:10358000800108EB8100291DFFF718FDE86A21681A
:10359000C96A8842CDD30126CBE700002400002071
:1035A0009C0300202DE9F0472C4C0026E06A38B13E
:1035B000FFF710FDE06A401EE062E06A40B147E0BC
:1035C000502080F31188BFF34F8FBFF36F8FFEE75A
:1035D000A168234D012079B3A5F1B409804628687C
:1035E000E8B1E868C76807F11800FFF7AFFC381DBD
:1035F000FFF7ACFCF96A226908FA01F01043206178
:1036000001EB810109EB8100391DFFF7D7FCF86A56
:103610002168C96A8842E2D3C4F81C80DFE7A06948
:1036200058B14546A06940B1FFF756FF00B1E561CA
:10363000A069401EA061F5E70AE0E069012807D112
:103640000849012600070860BFF34F8FBFF36F8F53
:10365000FFF7E0FC3046BDE8F087000024000020C2
:103660005004002004ED00E0CC360008851D000861
:10367000000000000000000000050000B436000853
:10368000711A0008FDFF00000000000000050000A6
:10369000C0360008FD2B0008FDFF00000000000000
:1036A0000005000000000000010203040102030401
:1036B000060708096D795461736B30320000000011
:1036C0006D795461736B303300000000646566618E
:1036D000756C745461736B00F836000800000020AC
:1036E00074000000042C00086C37000874000020EF
:1036F0003C560000142C00080000000000000000F0
:103700000000000001000000000000000024F400A0
:1037100000000000AAAAAAAA000000000000000001
:103720000000000000000000000000000000000099
:103730000000000000000000000000000000000089
:103740000000000000000000000000000000000079
:103750000000000000000000000000000000000069
:0C3760000000000000000000000000005D
:040000050800018965
:00000001FF
