:020000040800F2
:1000000000200020A1020008AD230008AF23000853
:1000100000000000000000000000000000000000E0
:10002000000000000000000000000000D51A0008D9
:100030000000000000000000891B0008B123000838
:10004000F102000800000000F1020008F1020008BF
:10005000F1020008F1020008F1020008F1020008B4
:1000600000000000F1020008F1020008F10200089F
:10007000F1020008F1020008F1020008000000008F
:10008000F1020008B923000800000000F102000896
:10009000F1020008F1020008F1020008F102000874
:1000A000F1020008C9230008F1020008D923000862
:1000B000F102000800000000000000000000000045
:1000C000054B0648033310B51B1A062B03D9044B06
:1000D000002B00D0984710BD100000201000002019
:1000E000000000000648074910B5091A8910CB0F17
:1000F0005918491003D0044B002B00D0984710BD6D
:1001000010000020100000200000000010B5074C77
:100110002378002B09D1FFF7D3FF054B002B02D02A
:10012000044800E000BF0123237010BD1000002030
:100130000000000008250008094B10B5002B03D073
:100140000849094800E000BF08480368002B02D1B5
:10015000FFF7C8FF10BD064B002BF9D09847F7E713
:1001600000000000140000200825000810000020F6
:100170000000000002B4714649084900095C4900CA
:100180008E4402BC7047C046002243088B4274D3A1
:1001900003098B425FD3030A8B4244D3030B8B4288
:1001A00028D3030C8B420DD3FF22090212BA030C91
:1001B0008B4202D31212090265D0030B8B4219D372
:1001C00000E0090AC30B8B4201D3CB03C01A524192
:1001D000830B8B4201D38B03C01A5241430B8B42DA
:1001E00001D34B03C01A5241030B8B4201D30B03C3
:1001F000C01A5241C30A8B4201D3CB02C01A5241EA
:10020000830A8B4201D38B02C01A5241430A8B42AC
:1002100001D34B02C01A5241030A8B4201D30B0295
:10022000C01A5241CDD2C3098B4201D3CB01C01AAF
:10023000524183098B4201D38B01C01A52414309B9
:100240008B4201D34B01C01A524103098B4201D3A7
:100250000B01C01A5241C3088B4201D3CB00C01A14
:10026000524183088B4201D38B00C01A524143088C
:100270008B4201D34B00C01A5241411A00D20146B1
:10028000524110467047FFE701B5002000F006F824
:1002900002BDC0460029F7D076E770477047C046D8
:1002A0000D488546002103E00C4B5B584350043158
:1002B0000B480C4B42189A42F6D30B4A02E000233B
:1002C00013600432094B9A42F9D300F013F802F09C
:1002D000E3F801F09FFFFEE700200020C42500089E
:1002E0000000002010000020100000203812002024
:1002F000FEE700000121114B1A680A431A60586892
:100300000F4A02405A6018680E4A02401A60186884
:100310000D4A02401A6058680C4A02400F205A6089
:10032000DA6A8243DA62186B094A02401A635A6B2E
:100330008A435A6300229A607047C0460010024008
:100340000CB8FF08FFFFF6FEFFFFFBFFFFFFC0FF3B
:10035000ECFEFFFF1021064A10B5136800200B4386
:10036000136001F0E7FF01F0C5FF002010BDC0469B
:1003700000200240024A1368013313607047C046F0
:100380000C110020014B18687047C0460C1100206A
:1003900070B58901002814DA0F23C0B20340083B6E
:1003A000114A9B0803249B009B18FF222040A04079
:1003B00014000A4084408240DD69A5432A43DA6183
:1003C00011E08208094B03259200D218FF23284030
:1003D000A8401D00C02485400B408340A40016594E
:1003E000AE433343135170BD00ED00E000E100E087
:1003F0001F2318401E3B8340014A13607047C046CC
:1004000000E100E0094A431E012093420DD8C020BC
:10041000074A084953600B6A00061B021B0A034384
:100420000B6200200723906013607047FFFFFF00FE
:1004300010E000E000ED00E0054B1A68042802D14E
:100440001043186002E004218A431A607047C046D6
:1004500010E000E0F0B50B6887B002930023019133
:10046000029ADA4000D195E001229A400392039962
:10047000029A0A40009200D18AE0019A1021526843
:1004800016008E43022E0ED107251D40AD00013906
:10049000A940DC08A4000419276A8F43019909695F
:1004A000A9400F43276203245F00BC400321E443BB
:1004B0001140B9400568013E25400D430560012EFD
:1004C0000FD801998568CE682540BE4035438560C8
:1004D0004568039916098D4301210E409E4035431E
:1004E0004560C56801992C408D688021BD40490553
:1004F0002C43C4600A424BD00121274C0327A56935
:100500001F400D43A561A4699D080C400594059CFE
:100510000F242249AD00BF006D18BC409021AE6889
:10052000C905A643002488420CD01D4901348842E5
:1005300008D01C490134884204D01B490334884246
:1005400000D1023CBC40009934430E00AC60174C13
:10055000CD4327683E43D10301D43E002E402660A0
:100560006768009E3E43910301D43E002E406660C2
:10057000A768009E3E43D10201D43E002E40A660F3
:10058000E668009F3743920201D42E403700E760AF
:10059000013365E707B0F0BD0010024000000140E4
:1005A0000004004800080048000C00480004014016
:1005B00000690840411E8841C0B27047002A01D03E
:1005C000816100E081627047F0B5036885B0050085
:1005D000DB0703D42B689B0754D49AE00C23B74C59
:1005E00062681A40042A06D062681340082B0AD1B8
:1005F0006368DB0307D523689B03EBD56B68002B8F
:10060000E8D10120C3E16B68012B16D0002B0DD17E
:100610002268AB4B8026134023602268A94BB602A8
:1006200013402360FFF7AEFE070027E0052B09D13A
:1006300080222368D202134323608022236852025F
:10064000134306E022689E4B1340236022689D4BB3
:1006500013402360FFF796FE80260700B60223684A
:100660003342B7D1FFF78EFEC01B6428F7D90320B1
:100670008DE1FFF787FEC01B6428F8D8236833425A
:10068000F7D1A7E70C238D4C62681A4206D0626846
:100690001340082B10D16368DB030DD423689B073C
:1006A00002D5EB68012BACD1F82123682A698B4372
:1006B000D200134323602CE0EB680122002B18D0FA
:1006C0002368022613432360FFF75CFE07002368BC
:1006D0007A49334205D1FFF755FEC01B0228F6D9EF
:1006E000C5E7F8200B682A698343D20013430B60E7
:1006F0000FE02368022693432360FFF743FE0700C1
:100700002368334205D0FFF73DFEC01B0228F7D90E
:10071000ADE72B681B0703D42B685B0725D483E068
:10072000EB690122654C002B0FD0636A022613434C
:100730006362FFF727FE0700636A3342ECD1FFF7DD
:1007400021FEC01B0228F7D991E7636A0226934372
:100750006362FFF717FE0700636A3342DCD0FFF7DE
:1007600011FEC01B0228F7D981E780230021534CDA
:100770005B05E26900911A4208D1E2691A43E2611D
:10078000E26913400393039B0123009380274E4E9D
:100790007F0033683B4205D0AB68012B12D1226A3F
:1007A00013432EE033683B433360FFF7EBFD0190CA
:1007B00033683B42F0D1FFF7E5FD019BC01A642886
:1007C000F6D954E70122002B0BD1236A0227934369
:1007D0002362236A033293432362FFF7D3FD0600AB
:1007E00018E0052B07D10421236A0B432362236AF7
:1007F0001A432262BCE0236A934304222362236AE1
:1008000093432362B4E0FFF7BDFD304B801B984259
:1008100000D92CE7236A3B42F5D1009B012B03D181
:10082000E2692B4B1340E3612B68DB0641D56A6913
:10083000224C0423012A1BD1616B02260B43636304
:10084000636B1A436263FFF79DFD0700636B1B49EF
:10085000334205D1FFF796FDC01B0228F6D906E703
:10086000F8204B6BAA698343D20013434B6320E00B
:1008700005320AD1F821626B9A436263636BAA69FD
:100880008B43D2001343636313E0626B022613436E
:1008900001226363636B93436363FFF773FD070098
:1008A000636B334205D0FFF76DFDC01B0228F7D9FB
:1008B000DDE62A6A002A0DD1002068E0001002401F
:1008C000FFFFFEFFFFFFFBFF0070004088130000EA
:1008D000FFFFFFEF0C232F4C012061680B40082B1A
:1008E00055D02D4B022A32D1226880261340236036
:1008F000FFF748FD0700B6042268264B324205D0B8
:10090000FFF740FDC01B0228F6D9B0E60F21DA6AD6
:100910008A43E96A0A43DA62696AA86A5A6808433C
:100920001E4980250A40802102435A601A68490402
:100930000A431A60FFF726FD0600AD0423682B4228
:10094000BAD1FFF71FFD801B0228F7D98FE6226876
:10095000802513402360FFF715FD0600AD042368D2
:100960002B42A9D0FFF70EFD801B0228F7D97EE6A7
:10097000FFF708FD02270600236A3B4200D04CE740
:10098000FFF700FD064B801B9842F5D96FE605B0D6
:10099000F0BDC04600100240FFFFFFFEFFFFC2FF98
:1009A0008813000030B5144C89B01022210068462D
:1009B00001F098FD210004AD10221031280001F053
:1009C00091FD0C230D4842681340082B10D16C4652
:1009D0000733910C1940645CC16A0B40E95CD30396
:1009E00003D50748FFF7D0FB00E00648604300E06E
:1009F000034809B030BDC046382500080010024049
:100A000000127A0000093D000123F7B5434D0600AE
:100A10002A680F001A408A420AD33268930711D518
:100A2000F0203F494B688343B06803434B6009E0C3
:100A30002A689A430A432A602A6813409942ECD0F4
:100A4000012069E0D30706D401232968334A1940FD
:100A50008F4243D348E0324C73682268012B02D1A5
:100A6000920307D4ECE7022B02D1920102D4E7E70C
:100A70009207E5D5032162688A4313436360FFF759
:100A800081FC73680190012B0DD10C226368134027
:100A9000042BD9D0FFF776FC019BC01A214B98425A
:100AA000F3D9032038E0022B13D10C2263681340E2
:100AB000082BC9D0FFF766FC019BC01A194B98425E
:100AC000F3D9EEE7FFF75EFC019BC01A154B984285
:100AD000E7D80C2263681342F4D1B5E71168994353
:100AE000116012681A42ABD133680D4C5B0705D513
:100AF00062680D4B1340F26813436360FFF752FFC7
:100B000063680A4A1B061B0FD35CD840084B186069
:100B1000002001F00FFC0020FEBDC0460020024076
:100B20000010024088130000FFF8FFFF2025000896
:100B300000000020014B18687047C04600000020EC
:100B4000044B054A5B685B055B0FD35C034A106886
:100B5000D8407047001002403025000800000020F7
:100B60000723032203600A4B10B55C6822404260F1
:100B7000F0225C68224082605A68E023DB00134068
:100B8000C360044B1A68012313400B6010BDC046BC
:100B90000010024000200240F0B5036885B0050057
:100BA000DB035ED580230021394C5B05E2690091AF
:100BB0001A4208D1E2691A43E261E26913400393E1
:100BC000039B012300938027324E7F0033683B4212
:100BD00007D0C022216A92002D4B11402E4E11D118
:100BE00014E033683B433360FFF7CCFB019033687C
:100BF0003B42EED1FFF7C6FB019BC01A6428F6D931
:100C0000032042E06868024091420DD1236A204AE5
:100C10001E406B681E43009B2662012B21D1D169C7
:100C20001E4B0B40D3611CE08027196A1A6A08002A
:100C30007F023A431A621F6A194A30403A401A62E8
:100C40001862CB07E2D5FFF79DFB07000222236A5B
:100C50001342DBD1FFF796FB124BC01B9842F5D92C
:100C6000CEE72A68D30706D5032009490B6B8343D7
:100C7000A86803430B630020930606D5102204499D
:100C80000B6B9343EA6813430B6305B0F0BDC0469A
:100C90000010024000700040FFFCFFFFFFFFFFEF6D
:100CA000FFFFFEFF88130000F8B504000120002CB0
:100CB0005DD025005D352B78DBB2002B05D12200FD
:100CC0005C321370200001F0E9FA022340212B70FE
:100CD0002368E0681A6800268A43E0211A60C90088
:100CE000884205D9F0221201904206D1320006E076
:100CF00080225201884201D101E03200A662266BB7
:100D0000002E05D1884201D9022100E00121216392
:100D1000A7686668A1693E4327693E4367693E4309
:100D2000E7693E43276A3E43A76A3E438027BF00E8
:100D30000F403E431E60266B022E04D180271E68A2
:100D40003F013E431E60666A090C3043666B0643F2
:100D50000420014031430A435A60E26A00201A61CC
:100D6000D969034A0A40DA61012320662B70F8BD75
:100D7000FFF700007047412130B5036885B05C681B
:100D80009A681140012903D1610601D5C36C04E0C2
:100D9000910704D5210602D5036D984731E0B021B3
:100DA00049000A422DD004005D3451060BD521784C
:100DB000032926D00425016E29430166D9680191D3
:100DC00099680191019991060AD50125016E29437F
:100DD000016699683F3502911968A9431960029923
:100DE000D20506D50821026E0A4302669A6803926C
:100DF000039AE0215A688A435A6001232370FFF75F
:100E0000B9FF05B030BD704703680120D9680143C0
:100E1000D9601A6802431A60002070477047704713
:100E2000704770470222036810B519690400114227
:100E300013D0D968114210D0053A1A619B69043267
:100E400002769B0702D0FFF7EAFF04E0FFF7E6FF18
:100E50002000FFF7E5FF00232376042223681969A9
:100E6000114216D0D968114213D0093A1A610732DB
:100E700022769A69C0239B0020001A4202D0FFF715
:100E8000CEFF04E0FFF7CAFF2000FFF7C9FF0023F1
:100E90002376082223681969114214D0D9681142B7
:100EA00011D0113A1A61DB690D32227620009B07BE
:100EB00002D0FFF7B4FF04E0FFF7B0FF2000FFF718
:100EC000AFFF00232376102223681969114216D040
:100ED000D968114213D0213A1A6119322276DA699F
:100EE000C0239B0020001A4202D0FFF798FF04E0C5
:100EF000FFF794FF2000FFF793FF002323760122E2
:100F000023681969114207D0D968114204D0033A05
:100F10001A61200001F08EF98022236819691142BC
:100F200008D0D968114205D0023AFF3A1A61200070
:100F300000F07CF8402223681969114207D0D96873
:100F4000114204D0813A1A612000FFF76AFF202283
:100F500023681969114207D0D968114204D0413A77
:100F60001A61200000F061F810BD00001A4A10B5A7
:100F70000368904202D0194CA04208D17024A343C8
:100F80004C68234390420ED0144CA0420BD0144C1A
:100F9000A04208D0134CA04205D0134CA04202D06E
:100FA000124CA04203D1124C2340CC68234303606F
:100FB0008B68C3620B688362904208D0094B9842E9
:100FC00005D0094B984202D0084B984201D10B69D9
:100FD00003630123436110BD002C01400004004065
:100FE0000020004000400140004401400048014012
:100FF000FFFCFFFF70B504000120002C14D0250079
:1010000039352B78DBB2002B05D122003832137032
:101010002000FFF7F8FE022320682B70211DFFF748
:10102000A5FF012300202B7070BD704770477047EB
:101030007047704770B504000568C169226980680F
:101040002B68104362693F4E10433F4A08431340E8
:1010500003432B606A683D4BA0691340E268134369
:10106000226A6B60AB681043394A13400343AB609C
:1010700080231B02B54208D1364A106B032202407E
:101080003548805C994204D032E0344A954223D1FD
:1010900008E0082822D8FFF76DF807210A210E2161
:1010A0002121140099422CD1FFF74AFD05E0636825
:1010B00058082B4B09E0FFF775FC636840005B089C
:1010C00003E06368580880235B02C0186168FFF77B
:1010D0005BF883B2002003E0994230D10120002365
:1010E0000F211A07520F8B4321681343CB6027E06F
:1010F000082824D8FFF73EF805230F2313232323C2
:101100001800FFF71DFD61684B081818FFF73CF841
:1011100080B2E86011E06168124B480808E0FFF710
:1011200041FC61684B0803E0802361681B024808AA
:10113000C018FFF729F880B2F060002000E001201D
:1011400070BDC04600380140F369FFFFFFCFFFFFCD
:10115000FFF4FFFF00100240582500080044004043
:101160000024F40000127A00436A30B5DA0706D58D
:101170000168284A4C682240846A22434A609A07E0
:1011800006D50168244A4C682240C46A22434A605A
:101190005A0706D50168214A4C682240046B224355
:1011A0004A601A0706D501681D4A4C682240446B04
:1011B00022434A60DA0606D501681A4A8C68224042
:1011C000846B22438A609A0606D50168164A8C68A9
:1011D0002240C46B22438A605A0610D50168134A24
:1011E0004D68046C2A4022434A6080225203944294
:1011F00005D14C680E4A2240446C22434A601B06CB
:1012000006D501680B4B4A681340826C13434B6050
:1012100030BDC046FFFFFDFFFFFFFEFFFFFFFBFFEE
:10122000FF7FFFFFFFEFFFFFFFDFFFFFFFFFEFFF8E
:10123000FFFF9FFFFFFFF7FF01000022202369311E
:10124000C2660B704B700300683310001A70704751
:10125000030070B569331B7802000220212B26D1D0
:10126000150052352B881168002B09D10A687E3091
:1012700082430A600A68403802430A60180016E098
:1012800080249668D06C6401A64209D11469002CB0
:1012900006D104880230E405E40D0C85D06403E037
:1012A000441CD46402780A85581E2880002070BD32
:1012B0004021026810B513688B431360030020229D
:1012C00069331A70FFF7B3FE002010BD010070B53E
:1012D0006A310B780268222B30D1030080258668A2
:1012E0005C331C886D01436DAE4208D10569002D49
:1012F00005D1928C14401C800233436504E05D1CD0
:101300004565928C14401C70020000245A321388E8
:10131000013B9BB21380A34215D1202503681A68B4
:10132000AA431A601E68094A324001261A609A6868
:10133000B2439A600D70FFF77BFE04E0082102249F
:1013400093690B439361200070BDC046FFFEFFFF11
:101350000121036810B5DA6904000A4206D01A6850
:10136000D20503D51962C26E0A43C2660222D96948
:10137000114207D09968C90704D504211A62E26EA8
:101380000A43E2660422D969114207D09968C90765
:1013900004D502211A62E26E0A43E2660821DA6984
:1013A0000A4206D09A68D20703D51962E26E0A4350
:1013B000E2662022D969114205D01B68134202D08F
:1013C0002000FFF783FF80232268D169194205D0EE
:1013D00012681A4202D02000FFF73AFF4023226829
:1013E000D169194205D012681A4202D02000FFF7D5
:1013F0005FFFE36E002B07D02200202369321370B9
:1014000020005370FFF715FE10BD0000F7B5040073
:101410000E0001921D00002801D1012037E00700D5
:1014200069373B78DBB2002B04D1020068321370BD
:1014300000F0F8FF2423012122683B70136820008C
:101440008B431360FFF7F6FD0128E6D0636A002B9B
:1014500002D02000FFF788FE80212368C9019A6826
:101460002D040A439A609968094A20000A401643ED
:101470009E601968074A0A4001211543019A5205E6
:1014800015431D601A680A431A60FFF7D5FEFEBDBA
:10149000FF7FFFFFFFFF00FC10B500F06DF900209B
:1014A00010BDF0B500240B0047680168028A0826C9
:1014B000865F87B02500842E00D0F51C05A801901A
:1014C000039402940095380000F042F900230128AB
:1014D00000D1059B180007B0F0BD10B5012300280E
:1014E00000D00300180000F037FA002010BD10B53E
:1014F00000F0BAFA012801D000F068FB10BD03002B
:10150000012208334360C3600361002352428260BA
:101510000360704700230361704743689A684B601B
:101520008A609A68516099600368086101330360BA
:10153000704703000A6830B50833541C01D10369B1
:1015400005E05C682568AA4201D32300F9E75A68E0
:101550004A6091608B6059600368086101330360E1
:1015600030BD4168826803698A6082685160596849
:10157000884200D15A60002202611A68501E186029
:1015800070470000064B9A6A1268002A01D1013A9E
:1015900003E09A6AD268D2685268DA627047C0463D
:1015A0002C00002070B50B4C051E236B5860636B3C
:1015B0009D4205D2A06B216B0431FFF7BAFF08E012
:1015C000A06A216B0431FFF7B4FFE36A9D4200D2A9
:1015D000E56270BD2C000020F0B585B00C9D029036
:1015E0000F0014000393002D05D1900000F022FBA2
:1015F000051E00D19FE05C2000F01CFB061E0ED0F3
:10160000A40005632200A521280000F074FF336BBD
:10161000043C1C1907239C430094002306E0280087
:1016200000F086FB87E00133102B06D01A00F95C2E
:101630003432B154FA5C002AF5D1330000250A9CFB
:1016400043331D70062C00D90624331D1800F462A4
:10165000F46435650193FFF75DFF30001830FFF744
:1016600059FF07231C1B330058333661B46176627F
:101670007565039A1D700299009800F01BFA0B9B88
:101680003060002B00D01E6000F05CFA2C4CE36B45
:101690000133E363256B002D23D12663E36B012B1C
:1016A00029D12000403040191435FFF728FF8C2D38
:1016B000F7D1244D2F004C373800FFF720FF224888
:1016C000FFF71DFF20001430FFF719FF28007430CA
:1016D000FFF715FF2000FFF712FF1B4BA762A36364
:1016E00009E01A4B9B68002B05D1236B0A9ADB6A31
:1016F0009A4200D32663154DF06AEB680133EB6024
:1017000073642B69984200D928611423220058433E
:10171000403210180199FFF700FF00F01FFAAB6884
:101720000125002B09D0236B0A9ADB6A9A4204D95F
:1017300000F0FCF901E001256D42280005B0F0BD84
:101740002C000020AC0000200C0100202C01002007
:1017500030B585B0089C002801D172B6FEE7062C92
:1017600001D972B6FEE70A9D00940295099D019584
:10177000FFF732FF05B030BD1FB500248022029470
:101780000194009423000B490B48FFF725FF012823
:101790000AD172B60122094B5242DA62084A9060BD
:1017A0005C6300F099F903E0002801D172B6FEE70E
:1017B0001FBDC046982500089D1900082C00002078
:1017C0002C010020024A9369013393617047C0469F
:1017D0002C010020F7B5334CA369002B37D1324BD5
:1017E0005A6B1D0001325A635A6B0092002A0ED1C7
:1017F0009B6A1B68002B01D072B6FEE7AB6AAA6B2E
:10180000AA62AB63E3690133E361FFF7BBFEEB6AF6
:10181000009A00279A420FD3234DAB6A1B68002B16
:1018200002D101235B4206E0AB6A009ADB68DE6806
:1018300073689A4214D2EB6214221B490B6BDB6A69
:101840005343CB181B6C012B05D9012703E000275C
:10185000236A01332362636A002B21D001271FE032
:10186000331D18000193FFF77CFEB36A002B03D0F1
:1018700030001830FFF775FEF36A2269934200D9F1
:101880002361142253430848311D4030C018FFF72C
:1018900044FE2B6BF26ADB6A9A42BDD30127BBE799
:1018A0003800FEBD2C0100202C000020F8B5284C8B
:1018B000A369002B01D172B6FEE700F043F9A369DA
:1018C000013BA361A369002B01D000243BE0214D23
:1018D000EB6B002BF9D06B69002B1ED02B6ADE68F6
:1018E0003000371D1830FFF73CFE3800FFF739FE97
:1018F000F36A2269934200D92361142228005343DA
:101900004030C0183900FFF708FE2B6BF26ADB6A23
:101910009A42E0D301236362DDE7236A002B05D1FD
:10192000646A012CD1D100F001F90CE00125236A91
:10193000002BF5D0FFF74EFF002800D06562236A28
:10194000013B2362F3E700F009F92000F8BDC0462F
:101950002C0100202C00002010B5041E02D100F044
:10196000E5F815E00B4B9B69002B01D072B6FEE742
:10197000FFF728FF084A536B106BE4180430FFF799
:10198000F0FD2000FFF70EFEFFF790FF0028E6D0E5
:1019900010BDC0462C0100202C00002070B5154D54
:1019A0006B69002B1FD0FFF70DFF134C666FFFF71D
:1019B0007DFF002EF3D0043400F0C4F8E36FDC6840
:1019C000201DFFF7CEFD0D4AD36B013BD3636B693E
:1019D000013B6B6100F0C2F8206B00F0A9F9200018
:1019E00000F0A6F9DBE7054B1B6C012BD7D900F003
:1019F0009DF8D4E72C010020AC0000202C00002032
:101A0000174A10B591691300002902D001235362CF
:101A100025E01420516213491A6942438A18146C54
:101A20000A00002C08D11A69002A01D172B6FEE71B
:101A30001A69013A1A61EFE71C6914236343C91854
:101A40000B00486C483340684864984201D14368B1
:101A50004B6414236343D3185B6CDB68136310BDC2
:101A60002C0100202C000020044B01209A68002A41
:101A700003D0986943425841400070472C01002030
:101A8000034B1B68013301D072B6FEE772B6FEE766
:101A900004000020064A13681868203080F3098883
:101AA000022080F314883FBCAE4662B600BDC0463B
:101AB0005C00002010B58024031F64041C60043BFC
:101AC00019600349043B1960143B40381A6010BD8B
:101AD000811A000870470000FF210F4B09041A68A3
:101AE00010B50A43FF211A601A6809060A43FA2151
:101AF0001A600A4B89001868FEF746FB0722084B5C
:101B000001381860074B1A600022074B1A60FFF774
:101B1000C1FFFFF7B5FFC04620ED00E00000002048
:101B200014E000E010E000E0040000208022044BFC
:101B300052051A60BFF34F8FBFF36F8F7047C046D7
:101B400004ED00E072B6044A136801331360BFF37A
:101B50004F8FBFF36F8F704704000020054A136852
:101B6000002B01D172B6FEE7013B1360002B00D1C0
:101B700062B6704704000020EFF3108072B6704721
:101B8000002080F310887047EFF309800E4B1A682D
:101B900020381060F0C044464D4656465F46F0C0BF
:101BA00008B572B6FFF72CFF62B60CBC1168086866
:101BB0001030F0C8A046A946B246BB4680F309885B
:101BC0002038F0C81847C0465C00002010B5FFF769
:101BD000D3FF0400FFF7FEFD002803D08022034B53
:101BE00052051A602000FFF7CCFF10BD04ED00E0A5
:101BF0000F4B30B51C001A68824201D21300FAE77D
:101C000059685D18A84203D140684118180059600E
:101C100041684518AA4206D1A468A24203D054687C
:101C20001268611841600260984200D0186030BDAF
:101C300054010020F7B50400FFF7C4FD394A3A4DBE
:101C40009368002B1FD1110007330C31194206D0C5
:101C5000110013319943354BD3185B1A01E0FA2375
:101C60001B0107260020CB18083BB34350601160CE
:101C7000586018609360581A0B6080231B064860F8
:101C8000E86228636B636F6B3C4241D1002C3BD010
:101C90002300072108330B4201D08B430833002B6C
:101CA00034D02E6BB34233D81000146861680091B1
:101CB0008B4203D89268944207D129E021688C4670
:101CC0000029F7D020006446F0E7026801922268FC
:101CD0000260009AD21A102A08D9E018410701D0F0
:101CE00072B6FEE742606360FFF782FF6368EA6AEC
:101CF000F61A2E63964200D2EE621F430023019D26
:101D000067600835236004E0250002E01D0000E064
:101D10000025FFF7CBFD6B0701D072B6FEE7280068
:101D2000FEBDC04654010020D4100020AC0F0000BE
:101D300070B500281AD00E4D083843686A6B04004D
:101D40001A4201D172B6FEE70168002901D072B6CD
:101D5000FEE793434360FFF735FD2A6B636820007D
:101D60009B182B63FFF744FFFFF7A0FD70BDC04633
:101D7000D410002010B50120FFF7AFFBFBE70000F7
:101D800010B5012401211D48FEF712FC002804D1E2
:101D90003230FFF7A2FB1A4B1C7102211748FEF7E5
:101DA00007FC002804D13230FFF797FB144BDC709E
:101DB00090202021C005FEF7FBFB002804D1323023
:101DC000FFF78BFB0E4B9C7110210C48FEF7F0FBCC
:101DD000002804D13230FFF780FB094B5C720421EC
:101DE0000648FEF7E5FB002804D13230FFF775FB0B
:101DF000034B5C710120FFF770FBC3E7000800484C
:101E00001C11002070B5154C90B001A822000300F1
:101E100062CA62C322CA22C30021FFF742FB104BF1
:101E20001860230006A80200143362CB62C222CBE2
:101E300022C20021FFF735FB0A4B186023000BA8D4
:101E40000200283332CB32C212CB12C20021FFF77C
:101E500028FB054B186010B070BDC0465C2500081B
:101E6000101100201411002018110020802110B53D
:101E7000020089000148FEF7A1FB10BD00080048E0
:101E800010B50400020020210248FEF797FB024B28
:101E90005C7010BD000800481C11002010B5040043
:101EA000020040210248FEF789FB024B1C7010BD66
:101EB000000800481C11002070B5074C0500020006
:101EC00080212000FEF77AFB80212A0049002000B3
:101ED000FEF774FB70BDC046000800480022064BA8
:101EE0001A705A709A701A72DA701A715A719A715D
:101EF000DA715A727047C0461C11002070B5FFF7A6
:101F0000EDFF90200121C005FEF752FB002804D10F
:101F10001E30FFF7E2FA012000E00020FFF7A6FFE5
:101F200090200421C005FEF743FB6D4C061E34D102
:101F30001E20FFF7D2FA2079012816D12578012D2D
:101F400011D13000FFF7AAFF2800FFF7B5FF654B5E
:101F50001888FFF7C2FA3000FFF7AEFFFA20400002
:101F6000FFF7BBFA2800FFF78BFFE07801283ED18E
:101F70006578012D39D10020FFF782FF2800FFF797
:101F80009BFF584B5888FFF7A8FA0020FFF794FFF3
:101F9000FA204000FFF7A1FA26E0E578012D13D1E1
:101FA0000020FFF77BFF2800FFF786FF4D4B588886
:101FB000FFF793FA0020FFF77FFFFA204000FFF7BA
:101FC0008CFA2800FFF75CFF2579012D0FD1002046
:101FD000FFF756FF2800FFF76FFF424B1888FFF707
:101FE0007CFA0020FFF768FF2800FFF757FFA3796E
:101FF000012B1AD12578012D0AD10020FFF74EFFC1
:10200000FA204000FFF769FA2800FFF739FF0CE0DB
:102010006578012D09D10020FFF732FFFA2040003A
:10202000FFF75BFA2800FFF739FF637A012B03D033
:102030006379012B4FD131E0A370A578012DF7D141
:102040002A0080212848FEF7B9FA264EB088FFF70B
:1020500044FA002280212448FEF7B0FAC820FFF796
:102060003CFA80212A0049001F48FEF7A7FAB088F1
:10207000FFF733FA8021002249001B48FEF79EFA41
:10208000C820FFF72AFAE378012B01D100236372FD
:102090002379012BD1D100236372CEE72378012B62
:1020A00003D10020FFF7FAFE0BE06378012B03D188
:1020B0000020FFF7E5FE04E0A378012B01D1002307
:1020C000A3700120FFF7F8FE064BD888FFF705FA4A
:1020D0000020FFF7F1FE0120FFF7FFF911E7C046EE
:1020E0001C11002008000020000800488022294B15
:1020F000F0B55969120311435961596989B00A4011
:102100000092009A80225969D2031143596159699A
:1021100000240A400192019A8022596992021143D7
:1021200059615B691C4D1A400292029B172390264D
:1021300003A92800039304940594FEF78BF9072361
:10214000F60503A930000393102704940594FEF7C5
:1021500081F9012303A930000493039705940694A1
:10216000FEF778F9F8239B000393012303A92800C5
:10217000049305940694FEF76DF9220039003000AF
:10218000FEF71CFAF821220089002800FEF716FA53
:1021900009B0F0BD0010024000080048802330B5AF
:1021A0005B0295B0119380235B03012402251293F7
:1021B000002308A80894099410951393FEF704FAD5
:1021C000002800D0FEE70723029003902100684614
:1021D00000930195FEF718FC002800D0FEE706905A
:1021E00004A80494FEF7D8FC041E00D0FEE7FEF716
:1021F000A1FCFA218900FDF7C7FFFEF703F90420CF
:10220000FEF71AF90120220003214042FEF7C0F830
:1022100015B030BD10B5FEF79DF8FFF7BFFFFFF713
:1022200065FF00F013F800F0DFF8FFF7EBFDFFF7B4
:1022300033F9FEE70268034B10B59A4201D1FEF76D
:1022400099F810BD00100040FEE70000E0221148A0
:10225000114B10B503608223D200C26080225B0064
:102260004360002392008261D93AFF3A83600361A0
:102270004361C261036243628362213A03630833AC
:10228000C2624363FEF710FD002801D0FFF7DCFFB8
:1022900010BDC046281100200030014010B5026872
:1022A000124B86B09A421FD18023114A5B0191697B
:1022B0009020194391619269002413400093009B80
:1022C000E0230193DE3B029301A90133C00504938F
:1022D00003940594FEF7BEF8192022002100FEF7B2
:1022E00057F81920FEF784F806B010BD0030014001
:1022F00000100240012307B50D4A052091694042B4
:102300001943916192691340002201931100019BCE
:10231000FEF73EF80220002203214042FEF738F883
:102320000120002203214042FEF732F807BDC046DB
:102330000010024010B5010086B000221120FEF707
:1023400027F81120FEF754F81023134A02A8D16988
:102350001943D161D269694613400193019BFEF78D
:10236000FFFBFEF7EDFB0D4C0D4B0E4923600E4BB2
:10237000E360FDF709FF002301386060200023615E
:10238000A360FEF737FE03000120002B02D12000DE
:10239000FEF73AFD06B010BD001002408C1100207F
:1023A0000010004040420F00E70300007047FEE7C6
:1023B00010B5FFF79CF810BD10B50248FEF732FDCE
:1023C00010BDC0468C11002010B50248FEF7D3FCAA
:1023D00010BDC0462811002010B50248FEF7B8FF16
:1023E00010BDC046C81100200C480D4B10B503604D
:1023F000E1235B02002143600C230A0043610B00D0
:102400008160C16001618161C16101624162FEF769
:10241000FDFF002801D0FFF717FF10BDC8110020F5
:102420000038014070B50268194B86B09A422DD130
:102430008023184ADB0191699020194391619269C8
:10244000022413400093009BC02301250326DB00D8
:1024500001A9C00501930294039504960595FDF723
:10246000F9FF80239020029400245B0101A9C0059C
:102470000193039404960595FDF7ECFF1B202200C1
:102480002100FDF785FF1B20FDF7B2FF06B070BDF0
:1024900000380140001002400E4B70B500251E00B0
:1024A0000D4CE41AA410A54204D0AB00F358984791
:1024B0000135F8E700F028F8084B00251E00084C0D
:1024C000E41AA410A54204D0AB00F3589847013594
:1024D000F8E770BDBC250008BC250008BC25000835
:1024E000C0250008002310B59A4203D0CC5CC45428
:1024F0000133F9E710BD03008218934202D019702E
:102500000133FAE770470000F8B5C046F8BC08BCD4
:102510009E467047F8B5C046F8BC08BC9E4670475A
:102520000000000000000000010203040607080983
:102530000000000001020304020304050607080965
:102540000A0B0C0D0E0F10100102030405060708FC
:10255000090A0B0C0D0E0F1000040802AF2500082D
:10256000FD1E0008000000000000000080000000C8
:10257000A6250008751D0008FDFF000000000000F2
:10258000800000009D250008811D0008FDFF00005F
:10259000000000008000000049444C45006D795463
:1025A00061736B3033006D795461736B303200644A
:0C25B000656661756C745461736B00000B
:0425BC0039010008D9
:0425C0000D01000801
:1025C40000127A00AAAAAAAAD007D007F401D00759
:04000005080002A14C
:00000001FF
